{
  "abi": [
    {
      "inputs": [
        {
          "internalType": "address",
          "name": "_oracle",
          "type": "address"
        },
        {
          "internalType": "bytes32",
          "name": "_jobId",
          "type": "bytes32"
        },
        {
          "internalType": "uint256",
          "name": "_fee",
          "type": "uint256"
        },
        {
          "internalType": "address",
          "name": "_link",
          "type": "address"
        }
      ],
      "stateMutability": "nonpayable",
      "type": "constructor"
    },
    {
      "anonymous": false,
      "inputs": [
        {
          "indexed": true,
          "internalType": "bytes32",
          "name": "id",
          "type": "bytes32"
        }
      ],
      "name": "ChainlinkCancelled",
      "type": "event"
    },
    {
      "anonymous": false,
      "inputs": [
        {
          "indexed": true,
          "internalType": "bytes32",
          "name": "id",
          "type": "bytes32"
        }
      ],
      "name": "ChainlinkFulfilled",
      "type": "event"
    },
    {
      "anonymous": false,
      "inputs": [
        {
          "indexed": true,
          "internalType": "bytes32",
          "name": "id",
          "type": "bytes32"
        }
      ],
      "name": "ChainlinkRequested",
      "type": "event"
    },
    {
      "anonymous": false,
      "inputs": [
        {
          "indexed": false,
          "internalType": "uint256",
          "name": "volume",
          "type": "uint256"
        }
      ],
      "name": "DataFullfilled",
      "type": "event"
    },
    {
      "inputs": [],
      "name": "fee",
      "outputs": [
        {
          "internalType": "uint256",
          "name": "",
          "type": "uint256"
        }
      ],
      "stateMutability": "view",
      "type": "function"
    },
    {
      "inputs": [
        {
          "internalType": "bytes32",
          "name": "_requestId",
          "type": "bytes32"
        },
        {
          "internalType": "uint256",
          "name": "_volume",
          "type": "uint256"
        }
      ],
      "name": "fulfill",
      "outputs": [],
      "stateMutability": "nonpayable",
      "type": "function"
    },
    {
      "inputs": [],
      "name": "jobId",
      "outputs": [
        {
          "internalType": "bytes32",
          "name": "",
          "type": "bytes32"
        }
      ],
      "stateMutability": "view",
      "type": "function"
    },
    {
      "inputs": [],
      "name": "oracle",
      "outputs": [
        {
          "internalType": "address",
          "name": "",
          "type": "address"
        }
      ],
      "stateMutability": "view",
      "type": "function"
    },
    {
      "inputs": [],
      "name": "requestVolumeData",
      "outputs": [
        {
          "internalType": "bytes32",
          "name": "requestId",
          "type": "bytes32"
        }
      ],
      "stateMutability": "nonpayable",
      "type": "function"
    },
    {
      "inputs": [],
      "name": "volume",
      "outputs": [
        {
          "internalType": "uint256",
          "name": "",
          "type": "uint256"
        }
      ],
      "stateMutability": "view",
      "type": "function"
    }
  ],
  "bytecode": "608060405260016004553480156200001657600080fd5b5060405162000fb638038062000fb6833981016040819052620000399162000160565b6001600160a01b038116620000585762000052620000a2565b62000074565b600280546001600160a01b0319166001600160a01b0383161790555b50600780546001600160a01b0319166001600160a01b039490941693909317909255600855600955620001d0565b6200014173c89bd4e1632d3a43cb03aaad5262cbe4038bc5716001600160a01b03166338cc48316040518163ffffffff1660e01b8152600401602060405180830381865afa158015620000f9573d6000803e3d6000fd5b505050506040513d601f19601f820116820180604052508101906200011f9190620001ab565b600280546001600160a01b0319166001600160a01b0392909216919091179055565b565b80516001600160a01b03811681146200015b57600080fd5b919050565b600080600080608085870312156200017757600080fd5b620001828562000143565b93506020850151925060408501519150620001a06060860162000143565b905092959194509250565b600060208284031215620001be57600080fd5b620001c98262000143565b9392505050565b610dd680620001e06000396000f3fe608060405234801561001057600080fd5b50600436106100625760003560e01c80634357855e146100675780636021abac1461007c5780637dc0d1d014610097578063c2939d97146100c2578063c618a1e4146100cb578063ddca3f43146100d4575b600080fd5b61007a610075366004610a82565b6100dd565b005b6100846101db565b6040519081526020015b60405180910390f35b6007546100aa906001600160a01b031681565b6040516001600160a01b03909116815260200161008e565b61008460085481565b61008460065481565b61008460095481565b60008281526005602052604090205482906001600160a01b0316331461015b5760405162461bcd60e51b815260206004820152602860248201527f536f75726365206d75737420626520746865206f7261636c65206f6620746865604482015267081c995c5d595cdd60c21b60648201526084015b60405180910390fd5b60008181526005602052604080822080546001600160a01b03191690555182917f7cc135e0cebb02c3480ae5d74d377283180a2601f8f644edf7987b009316c63a91a260068290556040518281527f221d507243adddffe789060be0e69bff4be830996c6b265bfda5083d86f886329060200160405180910390a1505050565b6000806101f260085430634357855e60e01b6102ee565b90506102346040518060400160405280600381526020016219d95d60ea1b815250604051806080016040528060498152602001610d5860499139839190610313565b61029a604051806040016040528060048152602001630e0c2e8d60e31b8152506040518060400160405280601881526020017f5241572e4554482e5553442e564f4c554d453234484f55520000000000000000815250836103139092919063ffffffff16565b60408051808201909152600581526474696d657360d81b6020820152670de0b6b3a7640000906102cc90839083610336565b6007546009546102e7916001600160a01b0316908490610354565b9250505090565b6102f6610a47565b6102fe610a47565b61030a81868686610373565b95945050505050565b608083015161032290836103b0565b608083015161033190826103b0565b505050565b608083015161034590836103b0565b608083015161033190826103c7565b600061036b84848460016320214ca360e11b61042b565b949350505050565b61037b610a47565b61038b8560800151610100610628565b50509183526001600160a01b031660208301526001600160e01b031916604082015290565b6103bd8260038351610693565b6103318282610767565b67ffffffffffffffff198112156103e6576103e28282610795565b5050565b67ffffffffffffffff811315610400576103e282826107d7565b60008112610414576103e282600083610693565b6103e282600161042684600019610aba565b610693565b6004546040516bffffffffffffffffffffffff193060601b166020820152603481019190915260009060540160408051808303601f19018152918152815160209283012060045460608901526000818152600590935281832080546001600160a01b0319166001600160a01b038b16179055905190925082917fb5e6e01e79f91267dc17b4e6314d5d4d03593d2ceee0fbb452b750bd70ea5af991a2600082600080886000015189602001518a604001518b606001518a8d6080015160000151604051602401610502989796959493929190610b46565b60408051601f198184030181529181526020820180516001600160e01b03166001600160e01b0319909416939093179092526002549151630200057560e51b81529092506001600160a01b0390911690634000aea09061056a908a9089908690600401610bae565b6020604051808303816000875af1158015610589573d6000803e3d6000fd5b505050506040513d601f19601f820116820180604052508101906105ad9190610bd5565b6106055760405162461bcd60e51b815260206004820152602360248201527f756e61626c6520746f207472616e73666572416e6443616c6c20746f206f7261604482015262636c6560e81b6064820152608401610152565b6001600460008282546106189190610bf7565b9091555091979650505050505050565b604080518082019091526060815260006020820152610648602083610c0f565b1561067057610658602083610c0f565b610663906020610c31565b61066d9083610bf7565b91505b506020808301829052604080518085526000815283019091019052815b92915050565b601781116106b4576106ae8360e0600585901b1683176107fa565b50505050565b60ff81116106de576106d1836018611fe0600586901b16176107fa565b506106ae8382600161081f565b61ffff8111610709576106fc836019611fe0600586901b16176107fa565b506106ae8382600261081f565b63ffffffff81116107365761072983601a611fe0600586901b16176107fa565b506106ae8382600461081f565b67ffffffffffffffff81116103315761075a83601b611fe0600586901b16176107fa565b506106ae8382600861081f565b60408051808201909152606081526000602082015261078e83846000015151848551610845565b9392505050565b6107a08260c36107fa565b506103e2826107b183600019610aba565b6040516020016107c391815260200190565b60405160208183030381529060405261092f565b6107e28260c26107fa565b506103e282826040516020016107c391815260200190565b60408051808201909152606081526000602082015261078e838460000151518461093c565b60408051808201909152606081526000602082015261036b848560000151518585610998565b604080518082019091526060815260006020820152825182111561086857600080fd5b60208501516108778386610bf7565b11156108aa576108aa8561089a876020015187866108959190610bf7565b610a19565b6108a5906002610c48565b610a30565b6000808651805187602083010193508088870111156108c95787860182525b505050602084015b6020841061090957805182526108e8602083610bf7565b91506108f5602082610bf7565b9050610902602085610c31565b93506108d1565b51815160001960208690036101000a019081169019919091161790525083949350505050565b6103bd8260028351610693565b604080518082019091526060815260006020820152836020015183106109715761097184856020015160026108a59190610c48565b83518051602085830101848153508085141561098e576001810182525b5093949350505050565b60408051808201909152606081526000602082015260208501516109bc8584610bf7565b11156109d0576109d08561089a8685610bf7565b600060016109e084610100610d4b565b6109ea9190610c31565b9050855183868201018583198251161781525080518487011115610a0e5783860181525b509495945050505050565b600081831115610a2a57508161068d565b50919050565b8151610a3c8383610628565b506106ae8382610767565b6040805160a0810182526000808252602080830182905282840182905260608084018390528451808601909552845283015290608082015290565b60008060408385031215610a9557600080fd5b50508035926020909101359150565b634e487b7160e01b600052601160045260246000fd5b60008083128015600160ff1b850184121615610ad857610ad8610aa4565b6001600160ff1b0384018313811615610af357610af3610aa4565b50500390565b6000815180845260005b81811015610b1f57602081850181015186830182015201610b03565b81811115610b31576000602083870101525b50601f01601f19169290920160200192915050565b6001600160a01b0389811682526020820189905260408201889052861660608201526001600160e01b03198516608082015260a0810184905260c0810183905261010060e08201819052600090610b9f83820185610af9565b9b9a5050505050505050505050565b60018060a01b038416815282602082015260606040820152600061030a6060830184610af9565b600060208284031215610be757600080fd5b8151801515811461078e57600080fd5b60008219821115610c0a57610c0a610aa4565b500190565b600082610c2c57634e487b7160e01b600052601260045260246000fd5b500690565b600082821015610c4357610c43610aa4565b500390565b6000816000190483118215151615610c6257610c62610aa4565b500290565b600181815b80851115610ca2578160001904821115610c8857610c88610aa4565b80851615610c9557918102915b93841c9390800290610c6c565b509250929050565b600082610cb95750600161068d565b81610cc65750600061068d565b8160018114610cdc5760028114610ce657610d02565b600191505061068d565b60ff841115610cf757610cf7610aa4565b50506001821b61068d565b5060208310610133831016604e8410600b8410161715610d25575081810a61068d565b610d2f8383610c67565b8060001904821115610d4357610d43610aa4565b029392505050565b600061078e8383610caa56fe68747470733a2f2f6d696e2d6170692e63727970746f636f6d706172652e636f6d2f646174612f70726963656d756c746966756c6c3f6673796d733d455448267473796d733d555344a264697066735822122018e1db74ea71dbdf419223246f6a84a3d5801370d96e025d620fcfd05f7ce34164736f6c634300080b0033",
  "bytecodeSha1": "6dae063bb1da8f6cb12d5f6a6bc2ab59cdef9713",
  "compiler": {
    "evm_version": "istanbul",
    "optimizer": {
      "enabled": true,
      "runs": 200
    },
    "version": "0.8.11+commit.d7f03943"
  },
  "contractName": "APIConsumer",
  "language": "Solidity",
  "natspec": {
    "kind": "dev",
    "methods": {
      "constructor": {
        "notice": "Network: Kovan Oracle: 0xc57b33452b4f7bb189bb5afae9cc4aba1f7a4fd8 Job ID: d5270d1c311941d0b08bead21fea7747 Fee: 0.1 LINK"
      },
      "fulfill(bytes32,uint256)": {
        "notice": "Receive the response in the form of uint256"
      },
      "requestVolumeData()": {
        "notice": "Create a Chainlink request to retrieve API response, find the target data, then multiply by 1000000000000000000 (to remove decimal places from data)."
      }
    },
    "version": 1
  },
  "opcodes": "PUSH1 0x80 PUSH1 0x40 MSTORE CALLVALUE DUP1 ISZERO PUSH2 0x10 JUMPI PUSH1 0x0 DUP1 REVERT JUMPDEST POP PUSH1 0x4 CALLDATASIZE LT PUSH2 0x62 JUMPI PUSH1 0x0 CALLDATALOAD PUSH1 0xE0 SHR DUP1 PUSH4 0x4357855E EQ PUSH2 0x67 JUMPI DUP1 PUSH4 0x6021ABAC EQ PUSH2 0x7C JUMPI DUP1 PUSH4 0x7DC0D1D0 EQ PUSH2 0x97 JUMPI DUP1 PUSH4 0xC2939D97 EQ PUSH2 0xC2 JUMPI DUP1 PUSH4 0xC618A1E4 EQ PUSH2 0xCB JUMPI DUP1 PUSH4 0xDDCA3F43 EQ PUSH2 0xD4 JUMPI JUMPDEST PUSH1 0x0 DUP1 REVERT JUMPDEST PUSH2 0x7A PUSH2 0x75 CALLDATASIZE PUSH1 0x4 PUSH2 0xA82 JUMP JUMPDEST PUSH2 0xDD JUMP JUMPDEST STOP JUMPDEST PUSH2 0x84 PUSH2 0x1DB JUMP JUMPDEST PUSH1 0x40 MLOAD SWAP1 DUP2 MSTORE PUSH1 0x20 ADD JUMPDEST PUSH1 0x40 MLOAD DUP1 SWAP2 SUB SWAP1 RETURN JUMPDEST PUSH1 0x7 SLOAD PUSH2 0xAA SWAP1 PUSH1 0x1 PUSH1 0x1 PUSH1 0xA0 SHL SUB AND DUP2 JUMP JUMPDEST PUSH1 0x40 MLOAD PUSH1 0x1 PUSH1 0x1 PUSH1 0xA0 SHL SUB SWAP1 SWAP2 AND DUP2 MSTORE PUSH1 0x20 ADD PUSH2 0x8E JUMP JUMPDEST PUSH2 0x84 PUSH1 0x8 SLOAD DUP2 JUMP JUMPDEST PUSH2 0x84 PUSH1 0x6 SLOAD DUP2 JUMP JUMPDEST PUSH2 0x84 PUSH1 0x9 SLOAD DUP2 JUMP JUMPDEST PUSH1 0x0 DUP3 DUP2 MSTORE PUSH1 0x5 PUSH1 0x20 MSTORE PUSH1 0x40 SWAP1 KECCAK256 SLOAD DUP3 SWAP1 PUSH1 0x1 PUSH1 0x1 PUSH1 0xA0 SHL SUB AND CALLER EQ PUSH2 0x15B JUMPI PUSH1 0x40 MLOAD PUSH3 0x461BCD PUSH1 0xE5 SHL DUP2 MSTORE PUSH1 0x20 PUSH1 0x4 DUP3 ADD MSTORE PUSH1 0x28 PUSH1 0x24 DUP3 ADD MSTORE PUSH32 0x536F75726365206D75737420626520746865206F7261636C65206F6620746865 PUSH1 0x44 DUP3 ADD MSTORE PUSH8 0x81C995C5D595CDD PUSH1 0xC2 SHL PUSH1 0x64 DUP3 ADD MSTORE PUSH1 0x84 ADD JUMPDEST PUSH1 0x40 MLOAD DUP1 SWAP2 SUB SWAP1 REVERT JUMPDEST PUSH1 0x0 DUP2 DUP2 MSTORE PUSH1 0x5 PUSH1 0x20 MSTORE PUSH1 0x40 DUP1 DUP3 KECCAK256 DUP1 SLOAD PUSH1 0x1 PUSH1 0x1 PUSH1 0xA0 SHL SUB NOT AND SWAP1 SSTORE MLOAD DUP3 SWAP2 PUSH32 0x7CC135E0CEBB02C3480AE5D74D377283180A2601F8F644EDF7987B009316C63A SWAP2 LOG2 PUSH1 0x6 DUP3 SWAP1 SSTORE PUSH1 0x40 MLOAD DUP3 DUP2 MSTORE PUSH32 0x221D507243ADDDFFE789060BE0E69BFF4BE830996C6B265BFDA5083D86F88632 SWAP1 PUSH1 0x20 ADD PUSH1 0x40 MLOAD DUP1 SWAP2 SUB SWAP1 LOG1 POP POP POP JUMP JUMPDEST PUSH1 0x0 DUP1 PUSH2 0x1F2 PUSH1 0x8 SLOAD ADDRESS PUSH4 0x4357855E PUSH1 0xE0 SHL PUSH2 0x2EE JUMP JUMPDEST SWAP1 POP PUSH2 0x234 PUSH1 0x40 MLOAD DUP1 PUSH1 0x40 ADD PUSH1 0x40 MSTORE DUP1 PUSH1 0x3 DUP2 MSTORE PUSH1 0x20 ADD PUSH3 0x19D95D PUSH1 0xEA SHL DUP2 MSTORE POP PUSH1 0x40 MLOAD DUP1 PUSH1 0x80 ADD PUSH1 0x40 MSTORE DUP1 PUSH1 0x49 DUP2 MSTORE PUSH1 0x20 ADD PUSH2 0xD58 PUSH1 0x49 SWAP2 CODECOPY DUP4 SWAP2 SWAP1 PUSH2 0x313 JUMP JUMPDEST PUSH2 0x29A PUSH1 0x40 MLOAD DUP1 PUSH1 0x40 ADD PUSH1 0x40 MSTORE DUP1 PUSH1 0x4 DUP2 MSTORE PUSH1 0x20 ADD PUSH4 0xE0C2E8D PUSH1 0xE3 SHL DUP2 MSTORE POP PUSH1 0x40 MLOAD DUP1 PUSH1 0x40 ADD PUSH1 0x40 MSTORE DUP1 PUSH1 0x18 DUP2 MSTORE PUSH1 0x20 ADD PUSH32 0x5241572E4554482E5553442E564F4C554D453234484F55520000000000000000 DUP2 MSTORE POP DUP4 PUSH2 0x313 SWAP1 SWAP3 SWAP2 SWAP1 PUSH4 0xFFFFFFFF AND JUMP JUMPDEST PUSH1 0x40 DUP1 MLOAD DUP1 DUP3 ADD SWAP1 SWAP2 MSTORE PUSH1 0x5 DUP2 MSTORE PUSH5 0x74696D6573 PUSH1 0xD8 SHL PUSH1 0x20 DUP3 ADD MSTORE PUSH8 0xDE0B6B3A7640000 SWAP1 PUSH2 0x2CC SWAP1 DUP4 SWAP1 DUP4 PUSH2 0x336 JUMP JUMPDEST PUSH1 0x7 SLOAD PUSH1 0x9 SLOAD PUSH2 0x2E7 SWAP2 PUSH1 0x1 PUSH1 0x1 PUSH1 0xA0 SHL SUB AND SWAP1 DUP5 SWAP1 PUSH2 0x354 JUMP JUMPDEST SWAP3 POP POP POP SWAP1 JUMP JUMPDEST PUSH2 0x2F6 PUSH2 0xA47 JUMP JUMPDEST PUSH2 0x2FE PUSH2 0xA47 JUMP JUMPDEST PUSH2 0x30A DUP2 DUP7 DUP7 DUP7 PUSH2 0x373 JUMP JUMPDEST SWAP6 SWAP5 POP POP POP POP POP JUMP JUMPDEST PUSH1 0x80 DUP4 ADD MLOAD PUSH2 0x322 SWAP1 DUP4 PUSH2 0x3B0 JUMP JUMPDEST PUSH1 0x80 DUP4 ADD MLOAD PUSH2 0x331 SWAP1 DUP3 PUSH2 0x3B0 JUMP JUMPDEST POP POP POP JUMP JUMPDEST PUSH1 0x80 DUP4 ADD MLOAD PUSH2 0x345 SWAP1 DUP4 PUSH2 0x3B0 JUMP JUMPDEST PUSH1 0x80 DUP4 ADD MLOAD PUSH2 0x331 SWAP1 DUP3 PUSH2 0x3C7 JUMP JUMPDEST PUSH1 0x0 PUSH2 0x36B DUP5 DUP5 DUP5 PUSH1 0x1 PUSH4 0x20214CA3 PUSH1 0xE1 SHL PUSH2 0x42B JUMP JUMPDEST SWAP5 SWAP4 POP POP POP POP JUMP JUMPDEST PUSH2 0x37B PUSH2 0xA47 JUMP JUMPDEST PUSH2 0x38B DUP6 PUSH1 0x80 ADD MLOAD PUSH2 0x100 PUSH2 0x628 JUMP JUMPDEST POP POP SWAP2 DUP4 MSTORE PUSH1 0x1 PUSH1 0x1 PUSH1 0xA0 SHL SUB AND PUSH1 0x20 DUP4 ADD MSTORE PUSH1 0x1 PUSH1 0x1 PUSH1 0xE0 SHL SUB NOT AND PUSH1 0x40 DUP3 ADD MSTORE SWAP1 JUMP JUMPDEST PUSH2 0x3BD DUP3 PUSH1 0x3 DUP4 MLOAD PUSH2 0x693 JUMP JUMPDEST PUSH2 0x331 DUP3 DUP3 PUSH2 0x767 JUMP JUMPDEST PUSH8 0xFFFFFFFFFFFFFFFF NOT DUP2 SLT ISZERO PUSH2 0x3E6 JUMPI PUSH2 0x3E2 DUP3 DUP3 PUSH2 0x795 JUMP JUMPDEST POP POP JUMP JUMPDEST PUSH8 0xFFFFFFFFFFFFFFFF DUP2 SGT ISZERO PUSH2 0x400 JUMPI PUSH2 0x3E2 DUP3 DUP3 PUSH2 0x7D7 JUMP JUMPDEST PUSH1 0x0 DUP2 SLT PUSH2 0x414 JUMPI PUSH2 0x3E2 DUP3 PUSH1 0x0 DUP4 PUSH2 0x693 JUMP JUMPDEST PUSH2 0x3E2 DUP3 PUSH1 0x1 PUSH2 0x426 DUP5 PUSH1 0x0 NOT PUSH2 0xABA JUMP JUMPDEST PUSH2 0x693 JUMP JUMPDEST PUSH1 0x4 SLOAD PUSH1 0x40 MLOAD PUSH12 0xFFFFFFFFFFFFFFFFFFFFFFFF NOT ADDRESS PUSH1 0x60 SHL AND PUSH1 0x20 DUP3 ADD MSTORE PUSH1 0x34 DUP2 ADD SWAP2 SWAP1 SWAP2 MSTORE PUSH1 0x0 SWAP1 PUSH1 0x54 ADD PUSH1 0x40 DUP1 MLOAD DUP1 DUP4 SUB PUSH1 0x1F NOT ADD DUP2 MSTORE SWAP2 DUP2 MSTORE DUP2 MLOAD PUSH1 0x20 SWAP3 DUP4 ADD KECCAK256 PUSH1 0x4 SLOAD PUSH1 0x60 DUP10 ADD MSTORE PUSH1 0x0 DUP2 DUP2 MSTORE PUSH1 0x5 SWAP1 SWAP4 MSTORE DUP2 DUP4 KECCAK256 DUP1 SLOAD PUSH1 0x1 PUSH1 0x1 PUSH1 0xA0 SHL SUB NOT AND PUSH1 0x1 PUSH1 0x1 PUSH1 0xA0 SHL SUB DUP12 AND OR SWAP1 SSTORE SWAP1 MLOAD SWAP1 SWAP3 POP DUP3 SWAP2 PUSH32 0xB5E6E01E79F91267DC17B4E6314D5D4D03593D2CEEE0FBB452B750BD70EA5AF9 SWAP2 LOG2 PUSH1 0x0 DUP3 PUSH1 0x0 DUP1 DUP9 PUSH1 0x0 ADD MLOAD DUP10 PUSH1 0x20 ADD MLOAD DUP11 PUSH1 0x40 ADD MLOAD DUP12 PUSH1 0x60 ADD MLOAD DUP11 DUP14 PUSH1 0x80 ADD MLOAD PUSH1 0x0 ADD MLOAD PUSH1 0x40 MLOAD PUSH1 0x24 ADD PUSH2 0x502 SWAP9 SWAP8 SWAP7 SWAP6 SWAP5 SWAP4 SWAP3 SWAP2 SWAP1 PUSH2 0xB46 JUMP JUMPDEST PUSH1 0x40 DUP1 MLOAD PUSH1 0x1F NOT DUP2 DUP5 SUB ADD DUP2 MSTORE SWAP2 DUP2 MSTORE PUSH1 0x20 DUP3 ADD DUP1 MLOAD PUSH1 0x1 PUSH1 0x1 PUSH1 0xE0 SHL SUB AND PUSH1 0x1 PUSH1 0x1 PUSH1 0xE0 SHL SUB NOT SWAP1 SWAP5 AND SWAP4 SWAP1 SWAP4 OR SWAP1 SWAP3 MSTORE PUSH1 0x2 SLOAD SWAP2 MLOAD PUSH4 0x2000575 PUSH1 0xE5 SHL DUP2 MSTORE SWAP1 SWAP3 POP PUSH1 0x1 PUSH1 0x1 PUSH1 0xA0 SHL SUB SWAP1 SWAP2 AND SWAP1 PUSH4 0x4000AEA0 SWAP1 PUSH2 0x56A SWAP1 DUP11 SWAP1 DUP10 SWAP1 DUP7 SWAP1 PUSH1 0x4 ADD PUSH2 0xBAE JUMP JUMPDEST PUSH1 0x20 PUSH1 0x40 MLOAD DUP1 DUP4 SUB DUP2 PUSH1 0x0 DUP8 GAS CALL ISZERO DUP1 ISZERO PUSH2 0x589 JUMPI RETURNDATASIZE PUSH1 0x0 DUP1 RETURNDATACOPY RETURNDATASIZE PUSH1 0x0 REVERT JUMPDEST POP POP POP POP PUSH1 0x40 MLOAD RETURNDATASIZE PUSH1 0x1F NOT PUSH1 0x1F DUP3 ADD AND DUP3 ADD DUP1 PUSH1 0x40 MSTORE POP DUP2 ADD SWAP1 PUSH2 0x5AD SWAP2 SWAP1 PUSH2 0xBD5 JUMP JUMPDEST PUSH2 0x605 JUMPI PUSH1 0x40 MLOAD PUSH3 0x461BCD PUSH1 0xE5 SHL DUP2 MSTORE PUSH1 0x20 PUSH1 0x4 DUP3 ADD MSTORE PUSH1 0x23 PUSH1 0x24 DUP3 ADD MSTORE PUSH32 0x756E61626C6520746F207472616E73666572416E6443616C6C20746F206F7261 PUSH1 0x44 DUP3 ADD MSTORE PUSH3 0x636C65 PUSH1 0xE8 SHL PUSH1 0x64 DUP3 ADD MSTORE PUSH1 0x84 ADD PUSH2 0x152 JUMP JUMPDEST PUSH1 0x1 PUSH1 0x4 PUSH1 0x0 DUP3 DUP3 SLOAD PUSH2 0x618 SWAP2 SWAP1 PUSH2 0xBF7 JUMP JUMPDEST SWAP1 SWAP2 SSTORE POP SWAP2 SWAP8 SWAP7 POP POP POP POP POP POP POP JUMP JUMPDEST PUSH1 0x40 DUP1 MLOAD DUP1 DUP3 ADD SWAP1 SWAP2 MSTORE PUSH1 0x60 DUP2 MSTORE PUSH1 0x0 PUSH1 0x20 DUP3 ADD MSTORE PUSH2 0x648 PUSH1 0x20 DUP4 PUSH2 0xC0F JUMP JUMPDEST ISZERO PUSH2 0x670 JUMPI PUSH2 0x658 PUSH1 0x20 DUP4 PUSH2 0xC0F JUMP JUMPDEST PUSH2 0x663 SWAP1 PUSH1 0x20 PUSH2 0xC31 JUMP JUMPDEST PUSH2 0x66D SWAP1 DUP4 PUSH2 0xBF7 JUMP JUMPDEST SWAP2 POP JUMPDEST POP PUSH1 0x20 DUP1 DUP4 ADD DUP3 SWAP1 MSTORE PUSH1 0x40 DUP1 MLOAD DUP1 DUP6 MSTORE PUSH1 0x0 DUP2 MSTORE DUP4 ADD SWAP1 SWAP2 ADD SWAP1 MSTORE DUP2 JUMPDEST SWAP3 SWAP2 POP POP JUMP JUMPDEST PUSH1 0x17 DUP2 GT PUSH2 0x6B4 JUMPI PUSH2 0x6AE DUP4 PUSH1 0xE0 PUSH1 0x5 DUP6 SWAP1 SHL AND DUP4 OR PUSH2 0x7FA JUMP JUMPDEST POP POP POP POP JUMP JUMPDEST PUSH1 0xFF DUP2 GT PUSH2 0x6DE JUMPI PUSH2 0x6D1 DUP4 PUSH1 0x18 PUSH2 0x1FE0 PUSH1 0x5 DUP7 SWAP1 SHL AND OR PUSH2 0x7FA JUMP JUMPDEST POP PUSH2 0x6AE DUP4 DUP3 PUSH1 0x1 PUSH2 0x81F JUMP JUMPDEST PUSH2 0xFFFF DUP2 GT PUSH2 0x709 JUMPI PUSH2 0x6FC DUP4 PUSH1 0x19 PUSH2 0x1FE0 PUSH1 0x5 DUP7 SWAP1 SHL AND OR PUSH2 0x7FA JUMP JUMPDEST POP PUSH2 0x6AE DUP4 DUP3 PUSH1 0x2 PUSH2 0x81F JUMP JUMPDEST PUSH4 0xFFFFFFFF DUP2 GT PUSH2 0x736 JUMPI PUSH2 0x729 DUP4 PUSH1 0x1A PUSH2 0x1FE0 PUSH1 0x5 DUP7 SWAP1 SHL AND OR PUSH2 0x7FA JUMP JUMPDEST POP PUSH2 0x6AE DUP4 DUP3 PUSH1 0x4 PUSH2 0x81F JUMP JUMPDEST PUSH8 0xFFFFFFFFFFFFFFFF DUP2 GT PUSH2 0x331 JUMPI PUSH2 0x75A DUP4 PUSH1 0x1B PUSH2 0x1FE0 PUSH1 0x5 DUP7 SWAP1 SHL AND OR PUSH2 0x7FA JUMP JUMPDEST POP PUSH2 0x6AE DUP4 DUP3 PUSH1 0x8 PUSH2 0x81F JUMP JUMPDEST PUSH1 0x40 DUP1 MLOAD DUP1 DUP3 ADD SWAP1 SWAP2 MSTORE PUSH1 0x60 DUP2 MSTORE PUSH1 0x0 PUSH1 0x20 DUP3 ADD MSTORE PUSH2 0x78E DUP4 DUP5 PUSH1 0x0 ADD MLOAD MLOAD DUP5 DUP6 MLOAD PUSH2 0x845 JUMP JUMPDEST SWAP4 SWAP3 POP POP POP JUMP JUMPDEST PUSH2 0x7A0 DUP3 PUSH1 0xC3 PUSH2 0x7FA JUMP JUMPDEST POP PUSH2 0x3E2 DUP3 PUSH2 0x7B1 DUP4 PUSH1 0x0 NOT PUSH2 0xABA JUMP JUMPDEST PUSH1 0x40 MLOAD PUSH1 0x20 ADD PUSH2 0x7C3 SWAP2 DUP2 MSTORE PUSH1 0x20 ADD SWAP1 JUMP JUMPDEST PUSH1 0x40 MLOAD PUSH1 0x20 DUP2 DUP4 SUB SUB DUP2 MSTORE SWAP1 PUSH1 0x40 MSTORE PUSH2 0x92F JUMP JUMPDEST PUSH2 0x7E2 DUP3 PUSH1 0xC2 PUSH2 0x7FA JUMP JUMPDEST POP PUSH2 0x3E2 DUP3 DUP3 PUSH1 0x40 MLOAD PUSH1 0x20 ADD PUSH2 0x7C3 SWAP2 DUP2 MSTORE PUSH1 0x20 ADD SWAP1 JUMP JUMPDEST PUSH1 0x40 DUP1 MLOAD DUP1 DUP3 ADD SWAP1 SWAP2 MSTORE PUSH1 0x60 DUP2 MSTORE PUSH1 0x0 PUSH1 0x20 DUP3 ADD MSTORE PUSH2 0x78E DUP4 DUP5 PUSH1 0x0 ADD MLOAD MLOAD DUP5 PUSH2 0x93C JUMP JUMPDEST PUSH1 0x40 DUP1 MLOAD DUP1 DUP3 ADD SWAP1 SWAP2 MSTORE PUSH1 0x60 DUP2 MSTORE PUSH1 0x0 PUSH1 0x20 DUP3 ADD MSTORE PUSH2 0x36B DUP5 DUP6 PUSH1 0x0 ADD MLOAD MLOAD DUP6 DUP6 PUSH2 0x998 JUMP JUMPDEST PUSH1 0x40 DUP1 MLOAD DUP1 DUP3 ADD SWAP1 SWAP2 MSTORE PUSH1 0x60 DUP2 MSTORE PUSH1 0x0 PUSH1 0x20 DUP3 ADD MSTORE DUP3 MLOAD DUP3 GT ISZERO PUSH2 0x868 JUMPI PUSH1 0x0 DUP1 REVERT JUMPDEST PUSH1 0x20 DUP6 ADD MLOAD PUSH2 0x877 DUP4 DUP7 PUSH2 0xBF7 JUMP JUMPDEST GT ISZERO PUSH2 0x8AA JUMPI PUSH2 0x8AA DUP6 PUSH2 0x89A DUP8 PUSH1 0x20 ADD MLOAD DUP8 DUP7 PUSH2 0x895 SWAP2 SWAP1 PUSH2 0xBF7 JUMP JUMPDEST PUSH2 0xA19 JUMP JUMPDEST PUSH2 0x8A5 SWAP1 PUSH1 0x2 PUSH2 0xC48 JUMP JUMPDEST PUSH2 0xA30 JUMP JUMPDEST PUSH1 0x0 DUP1 DUP7 MLOAD DUP1 MLOAD DUP8 PUSH1 0x20 DUP4 ADD ADD SWAP4 POP DUP1 DUP9 DUP8 ADD GT ISZERO PUSH2 0x8C9 JUMPI DUP8 DUP7 ADD DUP3 MSTORE JUMPDEST POP POP POP PUSH1 0x20 DUP5 ADD JUMPDEST PUSH1 0x20 DUP5 LT PUSH2 0x909 JUMPI DUP1 MLOAD DUP3 MSTORE PUSH2 0x8E8 PUSH1 0x20 DUP4 PUSH2 0xBF7 JUMP JUMPDEST SWAP2 POP PUSH2 0x8F5 PUSH1 0x20 DUP3 PUSH2 0xBF7 JUMP JUMPDEST SWAP1 POP PUSH2 0x902 PUSH1 0x20 DUP6 PUSH2 0xC31 JUMP JUMPDEST SWAP4 POP PUSH2 0x8D1 JUMP JUMPDEST MLOAD DUP2 MLOAD PUSH1 0x0 NOT PUSH1 0x20 DUP7 SWAP1 SUB PUSH2 0x100 EXP ADD SWAP1 DUP2 AND SWAP1 NOT SWAP2 SWAP1 SWAP2 AND OR SWAP1 MSTORE POP DUP4 SWAP5 SWAP4 POP POP POP POP JUMP JUMPDEST PUSH2 0x3BD DUP3 PUSH1 0x2 DUP4 MLOAD PUSH2 0x693 JUMP JUMPDEST PUSH1 0x40 DUP1 MLOAD DUP1 DUP3 ADD SWAP1 SWAP2 MSTORE PUSH1 0x60 DUP2 MSTORE PUSH1 0x0 PUSH1 0x20 DUP3 ADD MSTORE DUP4 PUSH1 0x20 ADD MLOAD DUP4 LT PUSH2 0x971 JUMPI PUSH2 0x971 DUP5 DUP6 PUSH1 0x20 ADD MLOAD PUSH1 0x2 PUSH2 0x8A5 SWAP2 SWAP1 PUSH2 0xC48 JUMP JUMPDEST DUP4 MLOAD DUP1 MLOAD PUSH1 0x20 DUP6 DUP4 ADD ADD DUP5 DUP2 MSTORE8 POP DUP1 DUP6 EQ ISZERO PUSH2 0x98E JUMPI PUSH1 0x1 DUP2 ADD DUP3 MSTORE JUMPDEST POP SWAP4 SWAP5 SWAP4 POP POP POP POP JUMP JUMPDEST PUSH1 0x40 DUP1 MLOAD DUP1 DUP3 ADD SWAP1 SWAP2 MSTORE PUSH1 0x60 DUP2 MSTORE PUSH1 0x0 PUSH1 0x20 DUP3 ADD MSTORE PUSH1 0x20 DUP6 ADD MLOAD PUSH2 0x9BC DUP6 DUP5 PUSH2 0xBF7 JUMP JUMPDEST GT ISZERO PUSH2 0x9D0 JUMPI PUSH2 0x9D0 DUP6 PUSH2 0x89A DUP7 DUP6 PUSH2 0xBF7 JUMP JUMPDEST PUSH1 0x0 PUSH1 0x1 PUSH2 0x9E0 DUP5 PUSH2 0x100 PUSH2 0xD4B JUMP JUMPDEST PUSH2 0x9EA SWAP2 SWAP1 PUSH2 0xC31 JUMP JUMPDEST SWAP1 POP DUP6 MLOAD DUP4 DUP7 DUP3 ADD ADD DUP6 DUP4 NOT DUP3 MLOAD AND OR DUP2 MSTORE POP DUP1 MLOAD DUP5 DUP8 ADD GT ISZERO PUSH2 0xA0E JUMPI DUP4 DUP7 ADD DUP2 MSTORE JUMPDEST POP SWAP5 SWAP6 SWAP5 POP POP POP POP POP JUMP JUMPDEST PUSH1 0x0 DUP2 DUP4 GT ISZERO PUSH2 0xA2A JUMPI POP DUP2 PUSH2 0x68D JUMP JUMPDEST POP SWAP2 SWAP1 POP JUMP JUMPDEST DUP2 MLOAD PUSH2 0xA3C DUP4 DUP4 PUSH2 0x628 JUMP JUMPDEST POP PUSH2 0x6AE DUP4 DUP3 PUSH2 0x767 JUMP JUMPDEST PUSH1 0x40 DUP1 MLOAD PUSH1 0xA0 DUP2 ADD DUP3 MSTORE PUSH1 0x0 DUP1 DUP3 MSTORE PUSH1 0x20 DUP1 DUP4 ADD DUP3 SWAP1 MSTORE DUP3 DUP5 ADD DUP3 SWAP1 MSTORE PUSH1 0x60 DUP1 DUP5 ADD DUP4 SWAP1 MSTORE DUP5 MLOAD DUP1 DUP7 ADD SWAP1 SWAP6 MSTORE DUP5 MSTORE DUP4 ADD MSTORE SWAP1 PUSH1 0x80 DUP3 ADD MSTORE SWAP1 JUMP JUMPDEST PUSH1 0x0 DUP1 PUSH1 0x40 DUP4 DUP6 SUB SLT ISZERO PUSH2 0xA95 JUMPI PUSH1 0x0 DUP1 REVERT JUMPDEST POP POP DUP1 CALLDATALOAD SWAP3 PUSH1 0x20 SWAP1 SWAP2 ADD CALLDATALOAD SWAP2 POP JUMP JUMPDEST PUSH4 0x4E487B71 PUSH1 0xE0 SHL PUSH1 0x0 MSTORE PUSH1 0x11 PUSH1 0x4 MSTORE PUSH1 0x24 PUSH1 0x0 REVERT JUMPDEST PUSH1 0x0 DUP1 DUP4 SLT DUP1 ISZERO PUSH1 0x1 PUSH1 0xFF SHL DUP6 ADD DUP5 SLT AND ISZERO PUSH2 0xAD8 JUMPI PUSH2 0xAD8 PUSH2 0xAA4 JUMP JUMPDEST PUSH1 0x1 PUSH1 0x1 PUSH1 0xFF SHL SUB DUP5 ADD DUP4 SGT DUP2 AND ISZERO PUSH2 0xAF3 JUMPI PUSH2 0xAF3 PUSH2 0xAA4 JUMP JUMPDEST POP POP SUB SWAP1 JUMP JUMPDEST PUSH1 0x0 DUP2 MLOAD DUP1 DUP5 MSTORE PUSH1 0x0 JUMPDEST DUP2 DUP2 LT ISZERO PUSH2 0xB1F JUMPI PUSH1 0x20 DUP2 DUP6 ADD DUP2 ADD MLOAD DUP7 DUP4 ADD DUP3 ADD MSTORE ADD PUSH2 0xB03 JUMP JUMPDEST DUP2 DUP2 GT ISZERO PUSH2 0xB31 JUMPI PUSH1 0x0 PUSH1 0x20 DUP4 DUP8 ADD ADD MSTORE JUMPDEST POP PUSH1 0x1F ADD PUSH1 0x1F NOT AND SWAP3 SWAP1 SWAP3 ADD PUSH1 0x20 ADD SWAP3 SWAP2 POP POP JUMP JUMPDEST PUSH1 0x1 PUSH1 0x1 PUSH1 0xA0 SHL SUB DUP10 DUP2 AND DUP3 MSTORE PUSH1 0x20 DUP3 ADD DUP10 SWAP1 MSTORE PUSH1 0x40 DUP3 ADD DUP9 SWAP1 MSTORE DUP7 AND PUSH1 0x60 DUP3 ADD MSTORE PUSH1 0x1 PUSH1 0x1 PUSH1 0xE0 SHL SUB NOT DUP6 AND PUSH1 0x80 DUP3 ADD MSTORE PUSH1 0xA0 DUP2 ADD DUP5 SWAP1 MSTORE PUSH1 0xC0 DUP2 ADD DUP4 SWAP1 MSTORE PUSH2 0x100 PUSH1 0xE0 DUP3 ADD DUP2 SWAP1 MSTORE PUSH1 0x0 SWAP1 PUSH2 0xB9F DUP4 DUP3 ADD DUP6 PUSH2 0xAF9 JUMP JUMPDEST SWAP12 SWAP11 POP POP POP POP POP POP POP POP POP POP POP JUMP JUMPDEST PUSH1 0x1 DUP1 PUSH1 0xA0 SHL SUB DUP5 AND DUP2 MSTORE DUP3 PUSH1 0x20 DUP3 ADD MSTORE PUSH1 0x60 PUSH1 0x40 DUP3 ADD MSTORE PUSH1 0x0 PUSH2 0x30A PUSH1 0x60 DUP4 ADD DUP5 PUSH2 0xAF9 JUMP JUMPDEST PUSH1 0x0 PUSH1 0x20 DUP3 DUP5 SUB SLT ISZERO PUSH2 0xBE7 JUMPI PUSH1 0x0 DUP1 REVERT JUMPDEST DUP2 MLOAD DUP1 ISZERO ISZERO DUP2 EQ PUSH2 0x78E JUMPI PUSH1 0x0 DUP1 REVERT JUMPDEST PUSH1 0x0 DUP3 NOT DUP3 GT ISZERO PUSH2 0xC0A JUMPI PUSH2 0xC0A PUSH2 0xAA4 JUMP JUMPDEST POP ADD SWAP1 JUMP JUMPDEST PUSH1 0x0 DUP3 PUSH2 0xC2C JUMPI PUSH4 0x4E487B71 PUSH1 0xE0 SHL PUSH1 0x0 MSTORE PUSH1 0x12 PUSH1 0x4 MSTORE PUSH1 0x24 PUSH1 0x0 REVERT JUMPDEST POP MOD SWAP1 JUMP JUMPDEST PUSH1 0x0 DUP3 DUP3 LT ISZERO PUSH2 0xC43 JUMPI PUSH2 0xC43 PUSH2 0xAA4 JUMP JUMPDEST POP SUB SWAP1 JUMP JUMPDEST PUSH1 0x0 DUP2 PUSH1 0x0 NOT DIV DUP4 GT DUP3 ISZERO ISZERO AND ISZERO PUSH2 0xC62 JUMPI PUSH2 0xC62 PUSH2 0xAA4 JUMP JUMPDEST POP MUL SWAP1 JUMP JUMPDEST PUSH1 0x1 DUP2 DUP2 JUMPDEST DUP1 DUP6 GT ISZERO PUSH2 0xCA2 JUMPI DUP2 PUSH1 0x0 NOT DIV DUP3 GT ISZERO PUSH2 0xC88 JUMPI PUSH2 0xC88 PUSH2 0xAA4 JUMP JUMPDEST DUP1 DUP6 AND ISZERO PUSH2 0xC95 JUMPI SWAP2 DUP2 MUL SWAP2 JUMPDEST SWAP4 DUP5 SHR SWAP4 SWAP1 DUP1 MUL SWAP1 PUSH2 0xC6C JUMP JUMPDEST POP SWAP3 POP SWAP3 SWAP1 POP JUMP JUMPDEST PUSH1 0x0 DUP3 PUSH2 0xCB9 JUMPI POP PUSH1 0x1 PUSH2 0x68D JUMP JUMPDEST DUP2 PUSH2 0xCC6 JUMPI POP PUSH1 0x0 PUSH2 0x68D JUMP JUMPDEST DUP2 PUSH1 0x1 DUP2 EQ PUSH2 0xCDC JUMPI PUSH1 0x2 DUP2 EQ PUSH2 0xCE6 JUMPI PUSH2 0xD02 JUMP JUMPDEST PUSH1 0x1 SWAP2 POP POP PUSH2 0x68D JUMP JUMPDEST PUSH1 0xFF DUP5 GT ISZERO PUSH2 0xCF7 JUMPI PUSH2 0xCF7 PUSH2 0xAA4 JUMP JUMPDEST POP POP PUSH1 0x1 DUP3 SHL PUSH2 0x68D JUMP JUMPDEST POP PUSH1 0x20 DUP4 LT PUSH2 0x133 DUP4 LT AND PUSH1 0x4E DUP5 LT PUSH1 0xB DUP5 LT AND OR ISZERO PUSH2 0xD25 JUMPI POP DUP2 DUP2 EXP PUSH2 0x68D JUMP JUMPDEST PUSH2 0xD2F DUP4 DUP4 PUSH2 0xC67 JUMP JUMPDEST DUP1 PUSH1 0x0 NOT DIV DUP3 GT ISZERO PUSH2 0xD43 JUMPI PUSH2 0xD43 PUSH2 0xAA4 JUMP JUMPDEST MUL SWAP4 SWAP3 POP POP POP JUMP JUMPDEST PUSH1 0x0 PUSH2 0x78E DUP4 DUP4 PUSH2 0xCAA JUMP INVALID PUSH9 0x747470733A2F2F6D69 PUSH15 0x2D6170692E63727970746F636F6D70 PUSH2 0x7265 0x2E PUSH4 0x6F6D2F64 PUSH2 0x7461 0x2F PUSH17 0x726963656D756C746966756C6C3F667379 PUSH14 0x733D455448267473796D733D5553 DIFFICULTY LOG2 PUSH5 0x6970667358 0x22 SLT KECCAK256 XOR 0xE1 0xDB PUSH21 0xEA71DBDF419223246F6A84A3D5801370D96E025D62 0xF 0xCF 0xD0 0x5F PUSH29 0xE34164736F6C634300080B003300000000000000000000000000000000 ",
  "sha1": "f659cb42c9b9526bab2d47c3d7514e5669b884de",
  "source": "// SPDX-License-Identifier: MIT\npragma solidity ^0.8.0;\n\nimport \"@chainlink/contracts/src/v0.8/ChainlinkClient.sol\";\n\ncontract APIConsumer is ChainlinkClient {\n    using Chainlink for Chainlink.Request;\n    uint256 public volume;\n    address public oracle;\n    bytes32 public jobId;\n    uint256 public fee;\n\n    event DataFullfilled(uint256 volume);\n    \n    /**\n     * Network: Kovan\n     * Oracle: 0xc57b33452b4f7bb189bb5afae9cc4aba1f7a4fd8\n     * Job ID: d5270d1c311941d0b08bead21fea7747\n     * Fee: 0.1 LINK\n     */\n    constructor(address _oracle, bytes32 _jobId, uint256 _fee, address _link) {\n        if (_link == address(0)) {\n            setPublicChainlinkToken();\n        } else {\n            setChainlinkToken(_link);\n        }\n        oracle = _oracle;\n        // jobId = stringToBytes32(_jobId);\n        jobId = _jobId;\n        fee = _fee;\n    }\n    \n    /**\n     * Create a Chainlink request to retrieve API response, find the target\n     * data, then multiply by 1000000000000000000 (to remove decimal places from data).\n     */\n    function requestVolumeData() public returns (bytes32 requestId) \n    {\n        Chainlink.Request memory request = buildChainlinkRequest(jobId, address(this), this.fulfill.selector);\n        \n        // Set the URL to perform the GET request on\n        request.add(\"get\", \"https://min-api.cryptocompare.com/data/pricemultifull?fsyms=ETH&tsyms=USD\");\n        \n        // Set the path to find the desired data in the API response, where the response format is:\n        // {\"RAW\":\n        //   {\"ETH\":\n        //    {\"USD\":\n        //     {\n        //      \"VOLUME24HOUR\": xxx.xxx,\n        //     }\n        //    }\n        //   }\n        //  }\n        request.add(\"path\", \"RAW.ETH.USD.VOLUME24HOUR\");\n        \n        // Multiply the result by 1000000000000000000 to remove decimals\n        int timesAmount = 10**18;\n        request.addInt(\"times\", timesAmount);\n        \n        // Sends the request\n        return sendChainlinkRequestTo(oracle, request, fee);\n    }\n    \n    /**\n     * Receive the response in the form of uint256\n     */ \n    function fulfill(bytes32 _requestId, uint256 _volume) public recordChainlinkFulfillment(_requestId)\n    {\n        volume = _volume;\n        emit DataFullfilled(volume);\n    }\n\n    // function stringToBytes32(string memory source) public pure returns (bytes32 result) {\n    //     bytes memory tempEmptyStringTest = bytes(source);\n    //     if (tempEmptyStringTest.length == 0) {\n    //         return 0x0;\n    //     }\n\n    //     assembly {\n    //         result := mload(add(source, 32))\n    //     }\n    // }\n}\n",
  "sourcePath": "contracts/APIConsumer.sol",
  "type": "contract"
}